:100000000C9434000C9446000C9446000C9446006A
:100010000C9446000C94A4020C9446000C944600E8
:100020000C9446000C9446000C9446000C94460038
:100030000C9446000C9446000C9446000C94460028
:100040000C9498020C9446000C9446000C944600C4
:100050000C9446000C9446000C9446000C94460008
:100060000C9446000C94460011241FBECFEFD8E03C
:10007000DEBFCDBF21E0A0E0B1E001C01D92A13103
:10008000B207E1F70E9471010C9408030C94000080
:1000900082EA809380008AE18093810080E29EE47E
:1000A000909387008093860083EA8093B00085E078
:1000B0008093B100089580E480937C0086E880936B
:1000C0007A000895F8948FEF84B98AB188608AB96C
:1000D0008BB184638BB98FE087B9EDE6F0E0808166
:1000E00084638083E8E6F0E08081846080830E94FE
:1000F00048000E945B0078940895ECE7F0E090815E
:10010000907F8F70892B8083EAE7F0E080818064A4
:10011000808380917A0086FDFCCF80917800909159
:10012000790008950F931F93CB01835C91408D3626
:10013000910530F483E69BE0F9019183808312C03E
:10014000623CF1E07F0730F48CE99CE0F901918397
:10015000808308C06133724028F085EB99E0F90193
:1001600091838083CA01835C91408D36910530F480
:1001700083EC9CE0F8019183808312C0423CF1E063
:100180005F0730F487EC9AE0F8019183808308C020
:100190004133524028F089E99EE0F8019183808341
:1001A0001F910F9108959C01A8ECB0E00E94F90204
:1001B0002FEF33E040E050E00E94D702C90149969A
:1001C0000895F999FECF92BD81BD60BD8FB3846063
:1001D0008FBB8FB382608FBB0895F999FECF92BD1C
:1001E00081BD8FB381608FBB80B50895CF93DF93BE
:1001F000D42F262F30E0220F331F220F331F280F5A
:10020000311DC22FCC0F652F8C2F90E00E94E10092
:1002100081E08C0F6D2F90E00E94E100DF91CF9183
:10022000089570E0660F771F660F771F680F711DC6
:10023000660F862F840F90E00E94ED0008958130B4
:1002400039F485B1806285B985B18F7E85B90FC0DB
:10025000823039F485B1806185B985B18F7D85B9EA
:1002600006C085B18F7D85B985B18F7E85B9613036
:1002700069F488B1826088B988B18E7F88B988B105
:100280008B7F88B988B1877F88B90895623069F417
:1002900088B1846088B988B18E7F88B988B18D7F34
:1002A00088B988B1877F88B90895633069F488B1C7
:1002B000886088B988B18E7F88B988B18B7F88B90A
:1002C00088B18D7F88B9089588B1816088B988B177
:1002D0008D7F88B988B18B7F88B988B1877F88B9CD
:1002E00008950E94620060910101809102010E94C4
:1002F0001F0180910201811184C086E00E947D006F
:100300009093100180930F0187E00E947D009093ED
:100310000E0180930D0160910F017091100105E0B5
:1003200011E027E031E0AC0181E00E9492004091B1
:100330000D0150910E0160910F017091100127E0A5
:1003400031E080E00E9492008091070190910801C5
:100350009093890080938800809105019091060117
:1003600090938B0080938A0084E00E947D0090939C
:100370000C0180930B010E94D300809304018093B1
:10038000B30085E00E947D0090930A0180930901EB
:100390000E94D300809303018093B40080910001F8
:1003A000813029F540910F015091100160910101B8
:1003B0000E94F60040910D0150910E0160910101E3
:1003C00082E00E94F60040910B0150910C01609177
:1003D000010183E00E94F6004091090150910A0159
:1003E0006091010184E00E94F600109200012FEF5D
:1003F00039EF80E0215030408040E1F700C000003C
:1004000072CF813009F06FCF40E0609101010E940E
:100410001101C82FD0E0DC2FCC2741E06091010111
:1004200081E00E941101C82BD0931001C0930F01ED
:1004300040E06091010182E00E941101482F50E0EC
:10044000D42FCC2741E06091010182E00E9411018C
:10045000AE01482B50930E0140930D0160910F01A6
:100460007091100105E011E027E031E081E00E9489
:10047000920040910D0150910E0160910F01709119
:10048000100127E031E080E00E9492008091070196
:1004900090910801909389008093880080910501D4
:1004A0009091060190938B0080938A0040E06091C8
:1004B000010183E00E94110190E0D82FCC2741E098
:1004C0006091010183E00E9411019E01282BC90166
:1004D00090930C0180930B010E94D3008093040140
:1004E0008093B30040E06091010184E00E9411011B
:1004F00090E0D82FCC2741E06091010184E00E9478
:1005000011019E01282BC90190930A0180930901D2
:100510000E94D300809303018093B4003FEF89EFE2
:1005200090E0315080409040E1F700C00000DBCE09
:100530001F920F920FB60F921124F89478940F9097
:100540000FBE0F901F9018951F920F920FB60F922B
:1005500011248F939F93F8948FE19EE40197F1F714
:1005600000C000004A990AC0809102018F5F809309
:1005700002018330A1F41092020111C04C990AC00B
:10058000809101018F5F80930101843041F41092CA
:10059000010105C04D9903C081E08093000178946A
:1005A0009F918F910F900FBE0F901F901895A1E211
:1005B0001A2EAA1BBB1BFD010DC0AA1FBB1FEE1FDD
:1005C000FF1FA217B307E407F50720F0A21BB30B28
:1005D000E40BF50B661F771F881F991F1A9469F7A4
:1005E00060957095809590959B01AC01BD01CF0100
:1005F0000895A29FB001B39FC001A39F700D811DFC
:100600001124911DB29F700D811D1124911D08951B
:04061000F894FFCF8C
:00000001FF
