S011000050726F796563746F322E737265638C
S11300000C9434000C9446000C9446000C94460066
S11300100C9446000C9446000C9446000C94460044
S11300200C9446000C9446000C9446000C94460034
S11300300C9446000C9446000C9446000C94460024
S11300400C9446000C9446000C9446000C94460014
S11300500C9446000C9446000C9446000C94460004
S11300600C9446000C94460011241FBECFEFD8E038
S1130070DEBFCDBF21E0A0E0B1E001C01D92A830F9
S1130080B207E1F70E947A000C941B010C94000063
S113009084B1866084B982EA809380008AE1809387
S11300A0810080E29EE49093870080938600089507
S11300B080E480937C0086E880937A000895F89425
S11300C00E9448000E94580078940895ECE7F0E0FC
S11300D09081907F8F70892B8083EAE7F0E08081A4
S11300E08064808380917A0086FDFCCF80917900C2
S11300F090E008950E945F0086E00E94660090935D
S113010007018093060187E00E9466008C019093AA
S11301100501809304012091060130910701A0E4B8
S1130120BCE90E94EA000F2ECC24CA94F3E0DF2E2F
S1130130E12CF12CF02DA70196010E94CB00E901DE
S1130140C851DC4FD0930301C09302019801A0E48D
S1130150BCE90E94EA00A70196010E94CB00285145
S11301603C4F3093010120930001D0938900C09348
S11301708800809100019091010190938B008093FD
S11301808A002FEF89EF90E0215080409040E1F702
S113019000C00000B1CF052E97FB1EF400940E940E
S11301A0E20057FD07D00E94F90007FC03D04EF48B
S11301B00C94E20050954095309521953F4F4F4F58
S11301C05F4F089590958095709561957F4F8F4FFF
S11301D09F4F0895A29FB001B39FC001A39F700DCC
S11301E0811D1124911DB29F700D811D1124911D3B
S11301F00895A1E21A2EAA1BBB1BFD010DC0AA1F64
S1130200BB1FEE1FFF1FA217B307E407F50720F07B
S1130210A21BB30BE40BF50B661F771F881F991FF6
S11302201A9469F760957095809590959B01AC013F
S10D0230BD01CF010895F894FFCF3B
S9030000FC
