S011000050726F796563746F322E737265638C
S11300000C9434000C9451000C9451000C94510045
S11300100C9451000C9451000C9451000C94510018
S11300200C9451000C9451000C9451000C94510008
S11300300C9451000C9451000C9451000C945100F8
S11300400C940A010C9451000C9451000C9451002E
S11300500C9451000C9451000C9451000C945100D8
S11300600C9451000C94510011241FBECFEFD8E022
S1130070DEBFCDBF11E0A0E0B1E0EAE8F2E002C0EB
S113008005900D92A230B107D9F721E0A2E0B1E0CA
S113009001C01D92AE30B207E1F70E94C7000C9474
S11300A043010C94000082EA809380008AE18093EB
S11300B0810080E29EE490938700809386000895F7
S11300C080E480937C0086E880937A000895F89415
S11300D084B18E6184B90E9453000E9460007894B8
S11300E00895ECE7F0E09081907F8F70892B8083F6
S11300F0EAE7F0E080818064808380917A0086FD65
S1130100FCCF809178009091790008950F931F930C
S1130110CB01835C91408D36910530F483E69BE0FE
S1130120F9019183808312C0623CF1E07F0730F4CF
S11301308CE99CE0F9019183808308C061337240AB
S113014028F085EB99E0F90191838083CA01835CEF
S113015091408D36910530F483EC9CE0F801918355
S1130160808312C0423CF1E05F0730F487EC9AE0F0
S1130170F8019183808308C04133524028F089E913
S11301809EE0F801918380831F910F9108950E944E
S1130190670086E00E94710090930D0180930C012A
S11301A087E00E94710090930B0180930A01609193
S11301B00C0170910D0106E011E028E031E0AC0182
S11301C081E00E94860040910A0150910B016091E8
S11301D00C0170910D0128E031E080E00E9486005E
S11301E0809108019091090190938900809388007F
S11301F0809106019091070190938B0080938A006F
S11302002FEF89EF90E0215080409040E1F700C04B
S11302100000BFCF1F920F920FB60F9211242F939D
S11302203F938F939F93F8948091020190910301DF
S11302300196909303018093020180329E4421F43D
S113024010920301109202012091020130910301E6
S113025080910401909105012817390720F485B194
S1130260886085B903C085B1877F85B98091000115
S113027086BD78949F918F913F912F910F900FBEDF
S10D02800F901F901895F894FFCF1B
S105028AFE0070
S9030000FC
