:100000000C9434000C9451000C9451000C94510049
:100010000C9451000C944E050C9451000C9451001A
:100020000C9451000C9451000C9451000C9451000C
:100030000C9451000C9451000C9451000C945100FC
:100040000C9451000C9451000C9479050C945100BF
:100050000C9451000C9451000C9451000C945100DC
:100060000C9451000C94510011241FBECFEFD8E026
:10007000DEBFCDBF11E0A0E0B1E0E8ECFBE002C0E4
:1000800005900D92AA30B107D9F721E0AAE0B1E0BE
:1000900001C01D92A433B207E1F70E9497020C94AD
:1000A000E2050C94000082EA809380008AE180934C
:1000B000810080E29EE4909387008093860083EA2B
:1000C0008093B00085E08093B100089580E4809330
:1000D0007C0086E880937A0008958AB182608AB9AC
:1000E0008AB18E7F8AB91092C000E1ECF0E0808185
:1000F0008869808386E08093C20087E690E09093D1
:10010000C5008093C4000895F8948FEF84B98AB134
:1001100088608AB98BB184638BB98FE087B9EDE6CB
:10012000F0E0808184638083E8E6F0E08081846091
:1001300080830E9453000E9466000E946D007894A4
:100140000895ECE7F0E09081907F8F70892B808399
:10015000EAE7F0E080818064808380917A0086FD08
:10016000FCCF809178009091790008950F931F93B0
:10017000CB01835C91408D36910530F483E69BE0A2
:10018000F9019183808312C0623CF1E07F0730F473
:100190008CE99CE0F9019183808308C0613372404F
:1001A00028F085EB99E0F90191838083CA01835C93
:1001B00091408D36910530F483EC9CE0F8019183F9
:1001C000808312C0423CF1E05F0730F487EC9AE094
:1001D000F8019183808308C04133524028F089E9B7
:1001E0009EE0F801918380831F910F9108959C01F7
:1001F000A8ECB0E00E94D3052FEF33E040E050E0E0
:100200000E94B105C90149960895F999FECF92BDA2
:1002100081BD60BD8FB384608FBB8FB382608FBBA5
:100220000895F999FECF92BD81BD8FB381608FBBD8
:1002300080B50895CF93DF93D42F262F30E0220F7F
:10024000331F220F331F280F311DC22FCC0F652FF4
:100250008C2F90E00E94050181E08C0F6D2F90E0C3
:100260000E940501DF91CF91089570E0660F771F1E
:10027000660F771F680F711D660F862F840F90E041
:100280000E9411010895813039F485B1806285B9E9
:1002900085B18F7E85B90FC0823039F485B1806118
:1002A00085B985B18F7D85B906C085B18F7D85B94A
:1002B00085B18F7E85B9613069F488B1826088B973
:1002C00088B18E7F88B988B18B7F88B988B1877FE4
:1002D00088B90895623069F488B1846088B988B1BA
:1002E0008E7F88B988B18D7F88B988B1877F88B9BA
:1002F0000895633069F488B1886088B988B18E7FC9
:1003000088B988B18B7F88B988B18D7F88B9089505
:1003100088B1816088B988B18D7F88B988B18B7FB9
:1003200088B988B1877F88B908959091C00095FFFA
:10033000FCCF8093C60008950F931F93CF938C0139
:10034000C0E003C00E949501CF5FF801EC0FF11DE2
:1003500080818111F7CFCF911F910F910895DC011A
:1003600011961C921E9291E01BC02D913C91119709
:10037000A901440F551F220F331F220F331F220FD5
:10038000331F240F351FE92FF0E0E75DFE4F80811A
:10039000280F311D2053310911963C932E939F5FF6
:1003A00080910A01981708F38D919C9111978115FE
:1003B00024E0920728F08FEF93E08D939C930895AB
:1003C0008B38910520F48BE890E08D939C930895F1
:1003D000EF92FF920F931F93CF93DF93AC01E62F21
:1003E0009C01ADECBCEC0E94D30596958795969543
:1003F000879596958795EC01CC0FDD1F880F991F87
:10040000880F991F880F991F8C0F9D1F281B390B70
:10041000C0E3C20F9A010E94D3058C01169507957F
:10042000169507951695079598010E94D305969500
:10043000879596958795969587959C01220F331FF2
:10044000880F991F880F991F880F991F820F931F7C
:100450009801281B390B00E3020F9A013695279566
:1004600036952795ABE7B4E10E94D3057C01F6945D
:10047000E7949701ADECBCEC0E94D3059695879567
:1004800096958795969587959C01220F331F880F27
:10049000991F880F991F880F991F820F931F97012B
:1004A000281B390B10E3120F9A01369527953695C4
:1004B000279536952795A5ECB0E20E94D305AC01AF
:1004C000529542954F7045275F7045279A01ADECD4
:1004D000BCEC0E94D3059695879596958795969541
:1004E00087959C01220F331F880F991F880F991F32
:1004F000880F991F820F931F9A01281B390BD0E395
:10050000D20F8E2F0E9495018D2F0E949501812F71
:100510000E949501802F0E9495018C2F0E949501C9
:10052000DF91CF911F910F91FF90EF9008950E945E
:10053000840060911801809119010E94430180910B
:1005400019018111C2C090910B01913019F51092DF
:100550000B01909129019D3441F480912A0181334E
:10056000C9F481E08093160115C09091290190355E
:1005700089F490912A01913321F481E0809315014F
:1005800009C090912A01923329F4813019F081E059
:100590008093170180911601813021F41092160189
:1005A0008093190180911501813059F41092150141
:1005B000809118018F5F80931801843011F410929C
:1005C000180186E00E94A1009093270180932601E4
:1005D00087E00E94A10090932501809324016091FF
:1005E0002601709127010CE111E02EE131E0AC0110
:1005F00081E00E94B6004091240150912501609154
:100600002601709127012EE131E080E00E94B600C2
:1006100080911E0190911F01909389008093880022
:1006200080911C0190911D0190938B0080938A0012
:1006300084E00E94A10090932301809322010E94F4
:10064000F70080931B018093B30085E00E94A10016
:1006500090932101809320010E94F70080931A015A
:100660008093B40080911701813029F540912601D3
:1006700050912701609118010E941A0140912401B4
:10068000509125016091180182E00E941A01409169
:100690002201509123016091180183E00E941A0108
:1006A00040912001509121016091180184E00E9445
:1006B0001A01109217012FEF39EF80E021503040DE
:1006C0008040E1F700C0000034CF813009F0D4C091
:1006D00090910B01913019F510920B019091290125
:1006E0009D3441F480912A018133C9F481E08093E3
:1006F000160115C090912901903589F490912A0135
:10070000913321F481E08093150109C090912A0171
:10071000923329F4813019F081E0809317018091A0
:100720001601813029F41092160182E0809319019C
:1007300080911501813059F41092150180911801B2
:100740008F5F80931801843011F41092180140E0FB
:100750006091180181E00E943501C82FD0E0DC2FA4
:10076000CC2741E06091180181E00E943501C82B3F
:10077000D0932701C093260140E06091180182E0E8
:100780000E943501482F50E0D42FCC2741E06091E2
:10079000180182E00E943501AE01482B50932501DB
:1007A0004093240160912601709127010CE111E032
:1007B0002EE131E081E00E94B60040912401509189
:1007C000250160912601709127012EE131E080E042
:1007D0000E94B60080911E0190911F0190938900A4
:1007E0008093880080911C0190911D0190938B0053
:1007F00080938A0040E06091180183E00E943501F7
:1008000090E0D82FCC2741E06091180183E00E944E
:1008100035019E01282BC901909323018093220169
:100820000E94F70080931B018093B30040E0609129
:10083000180184E00E94350190E0D82FCC2741E0D8
:100840006091180184E00E9435019E01282BC901A6
:1008500090932101809320010E94F70080931A0158
:100860008093B4003FEF89EF90E03150804090409A
:10087000E1F700C000005DCE823009F05ACE9091C1
:100880000B01913009F068C010920B019091290181
:10089000913361F483E191E00E94AF0161E38091C3
:1008A0001301909114010E94E80156C09091290112
:1008B000923361F481E191E00E94AF0162E38091A3
:1008C0001101909112010E94E80146C09091290106
:1008D000933361F48FE091E00E94AF0163E3809174
:1008E0000F01909110010E94E80136C090912901FA
:1008F000943361F48DE091E00E94AF0164E3809154
:100900000D0190910E010E94E80126C090912901ED
:100910009D3441F480912A018133F1F481E0809388
:1009200016011AC090912901903591F490912A01F5
:10093000913321F481E0809315010EC090912A013A
:10094000923351F4813041F081E08093170104C06B
:1009500080E091E00E949C0180911601813021F499
:10096000109216011092190180911501813059F4ED
:1009700010921501809118018F5F809318018430C7
:1009800011F4109218016091130170911401709389
:10099000270160932601409111015091120150935B
:1009A00025014093240180910F01909110019093B3
:1009B00023018093220180910D0190910E0190936B
:1009C0002101809320010CE111E02EE131E081E072
:1009D0000E94B600409124015091250160912601AA
:1009E000709127012EE131E080E00E94B6008091F5
:1009F0001E0190911F01909389008093880080913F
:100A00001C0190911D0190938B0080938A0080912E
:100A10002201909123010E94F70080931B01809393
:100A2000B30080912001909121010E94F7008093F2
:100A30001A018093B40080911701813029F540910B
:100A4000260150912701609118010E941A014091DE
:100A50002401509125016091180182E00E941A0141
:100A600040912201509123016091180183E00E947E
:100A70001A0140912001509121016091180184E0F8
:100A80000E941A01109217012FEF39EF80E02150D8
:100A900030408040E1F700C000004BCD1F920F9224
:100AA0000FB60F9211248F939F93F8948FE39CE9D4
:100AB0000197F1F700C000004A9904C081E08093DB
:100AC00016010FC04C9904C081E08093150109C044
:100AD0004D9907C080911901813019F081E0809310
:100AE000170178949F918F910F900FBE0F901F90D8
:100AF00018951F920F920FB60F9211248F939F9308
:100B0000EF93FF93F8948091C600809333018C3269
:100B100081F4E0910C01F0E0E75DFE4F108281E08E
:100B200080930B0180910C0180930A0110920C01BB
:100B30000EC090910C01993050F4E0910C0191E0BD
:100B40009E0F90930C01F0E0E75DFE4F8083789458
:100B5000FF91EF919F918F910F900FBE0F901F907B
:100B60001895A1E21A2EAA1BBB1BFD010DC0AA1FDE
:100B7000BB1FEE1FFF1FA217B307E407F50720F006
:100B8000A21BB30BE40BF50B661F771F881F991F81
:100B90001A9469F760957095809590959B01AC01CA
:100BA000BD01CF010895A29FB001B39FC001A39FD3
:100BB000700D811D1124911DB29F700D811D112496
:080BC000911D0895F894FFCF88
:0A0BC800696E76616C69646F0000CD
:00000001FF
