S011000050726F796563746F322E737265638C
S11300000C9434000C9446000C9446000C94460066
S11300100C9446000C9446000C9446000C94460044
S11300200C9446000C9446000C9446000C94460034
S11300300C9446000C9446000C9446000C94460024
S11300400C9446000C9446000C9446000C94460014
S11300500C9446000C9446000C9446000C94460004
S11300600C9446000C94460011241FBECFEFD8E038
S1130070DEBFCDBF21E0A0E0B1E001C01D92A830F9
S1130080B207E1F70E94C0000C94F6000C94000043
S113009084B1866084B982EA809380008AE1809387
S11300A0810080E29EE49093870080938600089507
S11300B080E480937C0086E880937A000895F89425
S11300C00E9448000E94580078940895ECE7F0E0FC
S11300D09081907F8F70892B8083EAE7F0E08081A4
S11300E08064808380917A0086FDFCCF80917800C3
S11300F09091790008950F931F9381111FC0CB0134
S1130100835C91408D36910530F483E69BE0F901E0
S11301109183808332C0623CF1E07F0730F485EB49
S113012099E0F9019183808328C06133724028F1FA
S11301308CE99CE0F901918380831FC08130E9F44C
S1130140435C51404D36510530F483EC9CE0F8019A
S11301509183808312C0623CF1E07F0730F485E133
S11301609BE0F8019183808308C06133724028F0DA
S11301708CEF9DE0F801918380831F910F91089586
S11301800E945F0086E00E946600909307018093BE
S1130190060187E00E9466009093050180930401A4
S11301A0609106017091070100E011E022E031E066
S11301B0AC0181E00E947B008091020190910301D7
S11301C090938900809388008091000190910101AF
S11301D090938B0080938A002FEF89EF90E0215059
S11301E080409040E1F700C00000CCCFF894FFCFEE
S9030000FC
