:100000000C9434000C9446000C9446000C9446006A
:100010000C9446000C94EC020C9446000C944600A0
:100020000C9446000C9446000C9446000C94460038
:100030000C9446000C9446000C9446000C94460028
:100040000C9446000C9446000C941F030C9446003C
:100050000C9446000C9446000C9446000C94460008
:100060000C9446000C94460011241FBECFEFD8E03C
:10007000DEBFCDBF21E0A0E0B1E001C01D92AB31F9
:10008000B207E1F70E948A010C94B2030C940000BD
:1000900082EA809380008AE18093810080E29EE47E
:1000A000909387008093860083EA8093B00085E078
:1000B0008093B100089580E480937C0086E880936B
:1000C0007A0008958AB182608AB98AB18E7F8AB92E
:1000D0001092C000E1ECF0E080818869808386E0C6
:1000E0008093C20087E690E09093C5008093C4009F
:1000F0000895F8948FEF84B98AB188608AB98BB17A
:1001000084638BB98FE087B9EDE6F0E0808184638A
:100110008083E8E6F0E08081846080830E9448006C
:100120000E945B000E94620078940895ECE7F0E082
:100130009081907F8F70892B8083EAE7F0E0808147
:100140008064808380917A0086FDFCCF8091780066
:100150009091790008950F931F93CB01835C914098
:100160008D36910530F483E69BE0F901918380831D
:1001700012C0623CF1E07F0730F48CE99CE0F901A9
:100180009183808308C06133724028F085EB99E049
:10019000F90191838083CA01835C91408D3691057A
:1001A00030F483EC9CE0F8019183808312C0423CE0
:1001B000F1E05F0730F487EC9AE0F80191838083E7
:1001C00008C04133524028F089E99EE0F80191834C
:1001D00080831F910F9108959C01A8ECB0E00E94CC
:1001E0007D032FEF33E040E050E00E945B03C90144
:1001F00049960895F999FECF92BD81BD60BD8FB338
:1002000084608FBB8FB382608FBB0895F999FECF56
:1002100092BD81BD8FB381608FBB80B50895CF93B0
:10022000DF93D42F262F30E0220F331F220F331FEE
:10023000280F311DC22FCC0F652F8C2F90E00E940C
:10024000FA0081E08C0F6D2F90E00E94FA00DF91A0
:10025000CF91089570E0660F771F660F771F680FC4
:10026000711D660F862F840F90E00E94060108958D
:10027000813039F485B1806285B985B18F7E85B9C9
:100280000FC0823039F485B1806185B985B18F7D29
:1002900085B906C085B18F7D85B985B18F7E85B959
:1002A000613069F488B1826088B988B18E7F88B97D
:1002B00088B18B7F88B988B1877F88B9089562300B
:1002C00069F488B1846088B988B18E7F88B988B1B3
:1002D0008D7F88B988B1877F88B90895633069F4C4
:1002E00088B1886088B988B18E7F88B988B18B7FE2
:1002F00088B988B18D7F88B9089588B1816088B93F
:1003000088B18D7F88B988B18B7F88B988B1877FA4
:1003100088B908950E9479006091030180910401D9
:100320000E94380180910401811184C086E00E94FE
:100330009600909312018093110187E00E9496002D
:100340009093100180930F0160911101709112013F
:1003500007E011E029E031E0AC0181E00E94AB0050
:1003600040910F01509110016091110170911201A3
:1003700029E031E080E00E94AB008091090190917A
:100380000A019093890080938800809107019091E1
:10039000080190938B0080938A0084E00E9496006D
:1003A00090930E0180930D010E94EC008093060152
:1003B0008093B30085E00E94960090930C01809397
:1003C0000B010E94EC00809305018093B4008091A2
:1003D0000201813029F54091110150911201609183
:1003E00003010E940F0140910F0150911001609193
:1003F000030182E00E940F0140910D0150910E0116
:100400006091030183E00E940F0140910B01509124
:100410000C016091030184E00E940F01109202011F
:100420002FEF39EF80E0215030408040E1F700C0ED
:10043000000072CF813009F094C040E06091030168
:100440000E942A01C82FD0E0DC2FCC2741E0609128
:10045000030181E00E942A01C82BD0931201C093AE
:10046000110140E06091030182E00E942A01482FBF
:1004700050E0D42FCC2741E06091030182E00E943C
:100480002A01AE01482B5093100140930F01609157
:1004900011017091120107E011E029E031E081E0E3
:1004A0000E94AB0040910F01509110016091110129
:1004B0007091120129E031E080E00E94AB00809150
:1004C000090190910A01909389008093880080919E
:1004D00007019091080190938B0080938A0040E07F
:1004E0006091030183E00E942A0190E0D82FCC277D
:1004F00041E06091030183E00E942A019E01282BC4
:10050000C90190930E0180930D010E94EC0080932D
:1005100006018093B30040E06091030184E00E94F3
:100520002A0190E0D82FCC2741E06091030184E0BC
:100530000E942A019E01282BC90190930C018093EF
:100540000B010E94EC00809305018093B4003FEF03
:1005500089EF90E0315080409040E1F700C000000A
:10056000DBCE823009F0D8CE80910001909101015C
:1005700090930C0180930B0140910F015091100159
:10058000609111017091120107E011E029E031E062
:1005900081E00E94AB0040910F01509110016091E9
:1005A00011017091120129E031E080E00E94AB005E
:1005B0008091090190910A019093890080938800AD
:1005C000809107019091080190938B0080938A009D
:1005D000A3CE8093C60008951F920F920FB60F927C
:1005E00011248F939F93F8948FE19EE40197F1F784
:1005F00000C000004A990AC0809104018F5F809377
:1006000004018330A1F41092040111C04C990AC076
:10061000809103018F5F80930301843041F4109235
:10062000030105C04D9903C081E0809302017894D5
:100630009F918F910F900FBE0F901F9018951F9252
:100640000F920FB60F9211242F933F934F935F9306
:100650006F937F938F939F93AF93BF93EF93FF938A
:10066000F8948091C60080931A018A3071F4E09169
:100670001901F0E0EC5EFE4F108284E191E00E94EF
:100680008C03809313011092190180911A010E942A
:10069000E9027894FF91EF91BF91AF919F918F9173
:1006A0007F916F915F914F913F912F910F900FBE6E
:1006B0000F901F901895A1E21A2EAA1BBB1BFD01DB
:1006C0000DC0AA1FBB1FEE1FFF1FA217B307E40731
:1006D000F50720F0A21BB30BE40BF50B661F771F89
:1006E000881F991F1A9469F7609570958095909569
:1006F0009B01AC01BD01CF010895A29FB001B39F42
:10070000C001A39F700D811D1124911DB29F700D1A
:10071000811D1124911D0895FC0188279927E894D3
:1007200021912032E9F3293010F02E30C8F32B321A
:1007300041F02D3239F4689404C00E94AA03820F5C
:10074000911D219120532A30C0F31EF4909581957C
:100750009F4F08957AE0979F902D879F802D910D50
:0807600011240895F894FFCF65
:00000001FF
