:100000000C9434000C9451000C9451000C94510049
:100010000C9451000C949D030C9451000C945100CD
:100020000C9451000C9451000C9451000C9451000C
:100030000C9451000C9451000C9451000C945100FC
:100040000C9451000C9451000C94D0030C9451006A
:100050000C9451000C9451000C9451000C945100DC
:100060000C9451000C94510011241FBECFEFD8E026
:10007000DEBFCDBF11E0A0E0B1E0E6E7F8E002C0EE
:1000800005900D92AA30B107D9F721E0AAE0B1E0BE
:1000900001C01D92A233B207E1F70E94E8010C945F
:1000A00039040C94000082EA809380008AE18093F6
:1000B000810080E29EE4909387008093860083EA2B
:1000C0008093B00085E08093B100089580E4809330
:1000D0007C0086E880937A0008958AB182608AB9AC
:1000E0008AB18E7F8AB91092C000E1ECF0E0808185
:1000F0008869808386E08093C20087E690E09093D1
:10010000C5008093C4000895F8948FEF84B98AB134
:1001100088608AB98BB184638BB98FE087B9EDE6CB
:10012000F0E0808184638083E8E6F0E08081846091
:1001300080830E9453000E9466000E946D007894A4
:100140000895ECE7F0E09081907F8F70892B808399
:10015000EAE7F0E080818064808380917A0086FD08
:10016000FCCF809178009091790008950F931F93B0
:10017000CB01835C91408D36910530F483E69BE0A2
:10018000F9019183808312C0623CF1E07F0730F473
:100190008CE99CE0F9019183808308C0613372404F
:1001A00028F085EB99E0F90191838083CA01835C93
:1001B00091408D36910530F483EC9CE0F8019183F9
:1001C000808312C0423CF1E05F0730F487EC9AE094
:1001D000F8019183808308C04133524028F089E9B7
:1001E0009EE0F801918380831F910F9108959C01F7
:1001F000A8ECB0E00E942A042FEF33E040E050E08A
:100200000E940804C90149960895F999FECF92BD4C
:1002100081BD60BD8FB384608FBB8FB382608FBBA5
:100220000895F999FECF92BD81BD8FB381608FBBD8
:1002300080B50895CF93DF93D42F262F30E0220F7F
:10024000331F220F331F280F311DC22FCC0F652FF4
:100250008C2F90E00E94050181E08C0F6D2F90E0C3
:100260000E940501DF91CF91089570E0660F771F1E
:10027000660F771F680F711D660F862F840F90E041
:100280000E9411010895813039F485B1806285B9E9
:1002900085B18F7E85B90FC0823039F485B1806118
:1002A00085B985B18F7D85B906C085B18F7D85B94A
:1002B00085B18F7E85B9613069F488B1826088B973
:1002C00088B18E7F88B988B18B7F88B988B1877FE4
:1002D00088B90895623069F488B1846088B988B1BA
:1002E0008E7F88B988B18D7F88B988B1877F88B9BA
:1002F0000895633069F488B1886088B988B18E7FC9
:1003000088B988B18B7F88B988B18D7F88B9089505
:1003100088B1816088B988B18D7F88B988B18B7FB9
:1003200088B988B1877F88B908959091C00095FFFA
:10033000FCCF8093C60008950F931F93CF938C0139
:10034000C0E003C00E949501CF5FF801EC0FF11DE2
:1003500080818111F7CFCF911F910F910895DC011A
:1003600011961C921E9291E01BC02D913C91119709
:10037000A901440F551F220F331F220F331F220FD5
:10038000331F240F351FE92FF0E0E95DFE4F808118
:10039000280F311D2053310911963C932E939F5FF6
:1003A00080910A01981708F38D919C9111978115FE
:1003B00024E0920728F08FEF93E08D939C930895AB
:1003C0008B38910520F48BE890E08D939C930895F1
:1003D0000E94840060911601809117010E944301E0
:1003E00080911701811184C086E00E94A100909342
:1003F00025018093240187E00E94A10090932301AE
:100400008093220160912401709125010AE111E09D
:100410002CE131E0AC0181E00E94B6004091220164
:100420005091230160912401709125012CE131E06C
:1004300080E00E94B60080911C0190911D01909374
:1004400089008093880080911A0190911B019093FC
:100450008B0080938A0084E00E94A1009093210188
:10046000809320010E94F700809319018093B300CC
:1004700085E00E94A10090931F0180931E010E94BD
:10048000F700809318018093B400809115018130AA
:1004900029F54091240150912501609116010E9497
:1004A0001A0140912201509123016091160182E0CE
:1004B0000E941A0140912001509121016091160182
:1004C00083E00E941A0140911E0150911F0160912A
:1004D000160184E00E941A01109215012FEF39EFE6
:1004E00080E0215030408040E1F700C0000072CF32
:1004F000813009F094C040E0609116010E943501FE
:10050000C82FD0E0DC2FCC2741E06091160181E0BC
:100510000E943501C82BD0932501C093240140E0EF
:100520006091160182E00E943501482F50E0D42FDF
:10053000CC2741E06091160182E00E943501AE01B6
:10054000482B509323014093220160912401709124
:1005500025010AE111E02CE131E081E00E94B600C2
:100560004091220150912301609124017091250155
:100570002CE131E080E00E94B60080911C01909156
:100580001D01909389008093880080911A019091B9
:100590001B0190938B0080938A0040E060911601CC
:1005A00083E00E94350190E0D82FCC2741E0609194
:1005B000160183E00E9435019E01282BC90190930A
:1005C0002101809320010E94F700809319018093FC
:1005D000B30040E06091160184E00E94350190E094
:1005E000D82FCC2741E06091160184E00E943501AC
:1005F0009E01282BC90190931F0180931E010E9428
:10060000F700809318018093B4003FEF89EF90E0EA
:10061000315080409040E1F700C00000DBCE8230D6
:1006200009F0D8CE80910B01813071F580912701BE
:10063000813329F483E191E00E94AF011FC08091D2
:100640002701823329F481E191E00E94AF0116C0B5
:1006500080912701833329F48FE091E00E94AF015C
:100660000DC080912701843329F48DE091E00E9430
:10067000AF0104C080E091E00E949C0180912701BD
:100680000E94950110920B01609113017091140169
:100690007093250160932401409111015091120142
:1006A000509323014093220180910F0190911001FA
:1006B000909321018093200180910D0190910E0172
:1006C00090931F0180931E010AE111E02CE131E0BB
:1006D00081E00E94B6004091220150912301609177
:1006E0002401709125012CE131E080E00E94B600E8
:1006F00080911C0190911D01909389008093880046
:1007000080911A0190911B0190938B0080938A0035
:1007100080912001909121010E94F700809319019E
:100720008093B30080911E0190911F010E94F700F9
:10073000809318018093B4004DCE1F920F920FB694
:100740000F9211248F939F93F8948FE19EE4019769
:10075000F1F700C000004A990AC0809117018F5F2D
:10076000809317018330A1F41092170111C04C99A6
:100770000AC0809116018F5F80931601843041F486
:100780001092160105C04D9903C081E080931501B8
:1007900078949F918F910F900FBE0F901F90189596
:1007A0001F920F920FB60F9211248F939F93EF9386
:1007B000FF93F8948091C600809331018C3281F4CC
:1007C000E0910C01F0E0E95DFE4F108281E0809342
:1007D0000B0180910C0180930A0110920C010EC054
:1007E00090910C01993050F4E0910C0191E09E0F32
:1007F00090930C01F0E0E95DFE4F80837894FF91C7
:10080000EF919F918F910F900FBE0F901F901895B1
:10081000A1E21A2EAA1BBB1BFD010DC0AA1FBB1F04
:10082000EE1FFF1FA217B307E407F50720F0A21B76
:10083000B30BE40BF50B661F771F881F991F1A94E3
:1008400069F760957095809590959B01AC01BD010D
:10085000CF010895A29FB001B39FC001A39F700D67
:10086000811D1124911DB29F700D811D1124911DB8
:060870000895F894FFCF8B
:0A087600696E76616C69646F000022
:00000001FF
