:100000000C9434000C9446000C9446000C9446006A
:100010000C9446000C9446000C9446000C94460048
:100020000C9446000C9446000C9446000C94460038
:100030000C9446000C9446000C9446000C94460028
:100040000C943A010C9446000C9446000C94460023
:100050000C9446000C9446000C9446000C94460008
:100060000C9446000C94460011241FBECFEFD8E03C
:10007000DEBFCDBF21E0A0E0B1E001C01D92AE30F7
:10008000B207E1F70E94C5000C9477010C940000C0
:1000900082EA809380008AE18093810080E29EE47E
:1000A000909387008093860083EA8093B00085E078
:1000B0008093B100089580E480937C0086E880936B
:1000C0007A000895F89484B18E6184B98AB1886009
:1000D0008AB90E9448000E945B0078940895ECE77A
:1000E000F0E09081907F8F70892B8083EAE7F0E0C9
:1000F00080818064808380917A0086FDFCCF80912E
:1001000078009091790008950F931F93CB01835C41
:1001100091408D36910530F483E69BE0F90191839F
:10012000808312C0623CF1E07F0730F48CE99CE0F0
:10013000F9019183808308C06133724028F085EB18
:1001400099E0F90191838083CA01835C91408D36E7
:10015000910530F483EC9CE0F8019183808312C018
:10016000423CF1E05F0730F487EC9AE0F8019183BC
:10017000808308C04133524028F089E99EE0F801AD
:10018000918380831F910F9108950E94620086E001
:100190000E946F0090930D0180930C0187E00E94F4
:1001A0006F0090930B0180930A0160910C01709194
:1001B0000D0102E011E024E031E0AC0181E00E9499
:1001C000840040910A0150910B0160910C017091E3
:1001D0000D0124E031E080E00E9484008091040160
:1001E000909105019093890080938800809102018D
:1001F0009091030190938B0080938A0084E00E9489
:100200006F0090930901809308019C01A8ECB0E075
:100210000E9468010F2ECC24CA94F3E0DF2EE12C5B
:10022000F12CF02DA70196010E944601275E209334
:1002300001012093B30085E00E946F0090930701B5
:10024000809306019C01A8ECB0E00E946801A70120
:1002500096010E944601275E209300012093B4007E
:100260002FEF89EF90E0215080409040E1F700C0EF
:1002700000008DCF1F920F920FB60F921124F894A9
:1002800078940F900FBE0F901F901895A1E21A2E30
:10029000AA1BBB1BFD010DC0AA1FBB1FEE1FFF1F2A
:1002A000A217B307E407F50720F0A21BB30BE40B7A
:1002B000F50B661F771F881F991F1A9469F76095C1
:1002C0007095809590959B01AC01BD01CF0108957B
:1002D000A29FB001B39FC001A39F700D811D112487
:1002E000911DB29F700D811D1124911D0895F894E8
:0202F000FFCF3E
:00000001FF
