S011000050726F796563746F322E737265638C
S11300000C9434000C9446000C9446000C94460066
S11300100C9446000C9454020C9446000C94460034
S11300200C9446000C9446000C9446000C94460034
S11300300C9446000C9446000C9446000C94460024
S11300400C9448020C9446000C9446000C94460010
S11300500C9446000C9446000C9446000C94460004
S11300600C9446000C94460011241FBECFEFD8E038
S1130070DEBFCDBF21E0A0E0B1E001C01D92A03100
S1130080B207E1F70E944A010C94AC020C94000000
S113009082EA809380008AE18093810080E29EE47A
S11300A0909387008093860083EA8093B00085E074
S11300B08093B100089580E480937C0086E8809367
S11300C07A000895F8948FEF84B98AB188608AB968
S11300D08BB184638BB98FE087B9EDE6F0E0808162
S11300E084638083E8E6F0E08081846080830E94FA
S11300F048000E945B0078940895ECE7F0E090815A
S1130100907F8F70892B8083EAE7F0E080818064A0
S1130110808380917A0086FDFCCF80917800909155
S1130120790008950F931F93CB01835C91408D3622
S1130130910530F483E69BE0F9019183808312C03A
S1130140623CF1E07F0730F48CE99CE0F901918393
S1130150808308C06133724028F085EB99E0F9018F
S113016091838083CA01835C91408D36910530F47C
S113017083EC9CE0F8019183808312C0423CF1E05F
S11301805F0730F487EC9AE0F8019183808308C01C
S11301904133524028F089E99EE0F801918380833D
S11301A01F910F9108959C01A8ECB0E00E949D025C
S11301B02FEF33E040E050E00E947B02C9014996F2
S11301C00895F999FECF92BD81BD8FB381608FBB35
S11301D080B5089570E0660F771F660F771F680F6C
S11301E0711D660F862F840F90E00E94E100089530
S11301F0813039F485B1806285B985B18F7E85B946
S11302000FC0823039F485B1806185B985B18F7DA5
S113021085B906C085B18F7D85B985B18F7E85B9D5
S1130220613069F488B1826088B988B18E7F88B9F9
S113023088B18B7F88B988B1877F88B90895623087
S113024069F488B1846088B988B18E7F88B988B12F
S11302508D7F88B988B1877F88B90895633069F440
S113026088B1886088B988B18E7F88B988B18B7F5E
S113027088B988B18D7F88B9089588B1816088B9BB
S113028088B18D7F88B988B18B7F88B988B1877F21
S113029088B908950E946200609100018091010173
S11302A00E94F8008091010181115BC086E00E94E8
S11302B07D0090930F0180930E0187E00E947D00E2
S11302C090930D0180930C0160910E0170910F01C8
S11302D004E011E026E031E0AC0181E00E949200EC
S11302E040910C0150910D0160910E0170910F012C
S11302F026E031E080E00E94920080910601909116
S11303000701909389008093880080910401909163
S1130310050190938B0080938A0084E00E947D0005
S113032090930B0180930A010E94D30080930301F0
S11303308093B30085E00E947D009093090180932F
S113034008010E94D300809302018093B4002FEF30
S113035039EF80E0215030408040E1F700C00000D8
S11303609BCF813009F098CF40E0609100010E945A
S1130370EA00C82FD0E0DC2FCC2741E060910001D7
S113038081E00E94EA00C82BD0930F01C0930E01B4
S113039040E06091000182E00E94EA00482F50E0B2
S11303A0D42FCC2741E06091000182E00E94EA0052
S11303B0AE01482B50930D0140930C0160910E0146
S11303C070910F0104E011E026E031E081E00E9429
S11303D0920040910C0150910D0160910E017091B9
S11303E00F0126E031E080E00E9492008091060136
S11303F09091070190938900809388008091040173
S11304009091050190938B0080938A0040E0609165
S1130410000183E00E94EA0090E0D82FCC2741E05D
S11304206091000183E00E94EA009E01282BC9012B
S113043090930B0180930A010E94D30080930301DF
S11304408093B30040E06091000184E00E94EA00E0
S113045090E0D82FCC2741E06091000184E00E9415
S1130460EA009E01282BC901909309018093080199
S11304700E94D300809302018093B4003FEF89EF80
S113048090E0315080409040E1F700C0000004CF7C
S11304901F920F920FB60F921124F89478940F9034
S11304A00FBE0F901F9018951F920F920FB60F92C8
S11304B011248F93F8944A990AC0809101018F5FA7
S11304C080930101833081F4109201010DC04C9995
S11304D00AC0809100018F5F80930001853021F470
S11304E01092000101C089B178948F910F900FBED2
S11304F00F901F901895A1E21A2EAA1BBB1BFD0199
S11305000DC0AA1FBB1FEE1FFF1FA217B307E407EE
S1130510F50720F0A21BB30BE40BF50B661F771F46
S1130520881F991F1A9469F7609570958095909526
S11305309B01AC01BD01CF010895A29FB001B39FFF
S1130540C001A39F700D811D1124911DB29F700DD8
S10F0550811D1124911D0895F894FFCF23
S9030000FC
