:100000000C9434000C9446000C9446000C9446006A
:100010000C9446000C9442030C9446000C94460049
:100020000C9446000C9446000C9446000C94460038
:100030000C9446000C9446000C9446000C94460028
:100040000C9446000C9446000C9475030C944600E6
:100050000C9446000C9446000C9446000C94460008
:100060000C9446000C94460011241FBECFEFD8E03C
:10007000DEBFCDBF21E0A0E0B1E001C01D92A23201
:10008000B207E1F70E948A010C94DE030C94000091
:1000900082EA809380008AE18093810080E29EE47E
:1000A000909387008093860083EA8093B00085E078
:1000B0008093B100089580E480937C0086E880936B
:1000C0007A0008958AB182608AB98AB18E7F8AB92E
:1000D0001092C000E1ECF0E080818869808386E0C6
:1000E0008093C20087E690E09093C5008093C4009F
:1000F0000895F8948FEF84B98AB188608AB98BB17A
:1001000084638BB98FE087B9EDE6F0E0808184638A
:100110008083E8E6F0E08081846080830E9448006C
:100120000E945B000E94620078940895ECE7F0E082
:100130009081907F8F70892B8083EAE7F0E0808147
:100140008064808380917A0086FDFCCF8091780066
:100150009091790008950F931F93CB01835C914098
:100160008D36910530F483E69BE0F901918380831D
:1001700012C0623CF1E07F0730F48CE99CE0F901A9
:100180009183808308C06133724028F085EB99E049
:10019000F90191838083CA01835C91408D3691057A
:1001A00030F483EC9CE0F8019183808312C0423CE0
:1001B000F1E05F0730F487EC9AE0F80191838083E7
:1001C00008C04133524028F089E99EE0F80191834C
:1001D00080831F910F9108959C01A8ECB0E00E94CC
:1001E000CF032FEF33E040E050E00E94AD03C901A0
:1001F00049960895F999FECF92BD81BD60BD8FB338
:1002000084608FBB8FB382608FBB0895F999FECF56
:1002100092BD81BD8FB381608FBB80B50895CF93B0
:10022000DF93D42F262F30E0220F331F220F331FEE
:10023000280F311DC22FCC0F652F8C2F90E00E940C
:10024000FA0081E08C0F6D2F90E00E94FA00DF91A0
:10025000CF91089570E0660F771F660F771F680FC4
:10026000711D660F862F840F90E00E94060108958D
:10027000813039F485B1806285B985B18F7E85B9C9
:100280000FC0823039F485B1806185B985B18F7D29
:1002900085B906C085B18F7D85B985B18F7E85B959
:1002A000613069F488B1826088B988B18E7F88B97D
:1002B00088B18B7F88B988B1877F88B9089562300B
:1002C00069F488B1846088B988B18E7F88B988B1B3
:1002D0008D7F88B988B1877F88B90895633069F4C4
:1002E00088B1886088B988B18E7F88B988B18B7FE2
:1002F00088B988B18D7F88B9089588B1816088B93F
:1003000088B18D7F88B988B18B7F88B988B1877FA4
:1003100088B908950E9479006091060180910701D3
:100320000E94380180910701811184C086E00E94FB
:100330009600909315018093140187E00E94960027
:100340009093130180931201609114017091150133
:100350000AE011E02CE031E0AC0181E00E94AB004A
:100360004091120150911301609114017091150197
:100370002CE031E080E00E94AB0080910C01909174
:100380000D01909389008093880080910A019091DB
:100390000B0190938B0080938A0084E00E9496006A
:1003A00090931101809310010E94EC008093090149
:1003B0008093B30085E00E94960090930F01809394
:1003C0000E010E94EC00809308018093B40080919C
:1003D0000501813029F5409114015091150160917A
:1003E00006010E940F01409112015091130160918A
:1003F000060182E00E940F0140911001509111010D
:100400006091060183E00E940F0140910E0150911E
:100410000F016091060184E00E940F011092050116
:100420002FEF39EF80E0215030408040E1F700C0ED
:10043000000072CF813009F094C040E06091060165
:100440000E942A01C82FD0E0DC2FCC2741E0609128
:10045000060181E00E942A01C82BD0931501C093A8
:10046000140140E06091060182E00E942A01482FB9
:1004700050E0D42FCC2741E06091060182E00E9439
:100480002A01AE01482B5093130140931201609151
:100490001401709115010AE011E02CE031E081E0D7
:1004A0000E94AB0040911201509113016091140120
:1004B000709115012CE031E080E00E94AB0080914A
:1004C0000C0190910D019093890080938800809198
:1004D0000A0190910B0190938B0080938A0040E079
:1004E0006091060183E00E942A0190E0D82FCC277A
:1004F00041E06091060183E00E942A019E01282BC1
:10050000C90190931101809310010E94EC00809327
:1005100009018093B30040E06091060184E00E94ED
:100520002A0190E0D82FCC2741E06091060184E0B9
:100530000E942A019E01282BC90190930F018093EC
:100540000E010E94EC00809308018093B4003FEFFD
:1005500089EF90E0315080409040E1F700C000000A
:10056000DBCE823009F0D8CE80910101813009F0D4
:1005700040C0109204011092030120E01CC0809141
:10058000030190910401AC01440F551F880F991F7E
:10059000880F991F880F991F840F951FE22FF0E095
:1005A000E95EFE4F3081830F911DC0979093040147
:1005B000809303012F5F80910001281700F3809141
:1005C000030190910401811524E0920738F08FEF28
:1005D00093E0909304018093030109C08B38910547
:1005E00030F48BE890E09093040180930301109223
:1005F0000101809103019091040190930F01809378
:100600000E014091120150911301609114017091FB
:1006100015010AE011E02CE031E081E00E94AB001E
:1006200040911201509113016091140170911501D4
:100630002CE031E080E00E94AB0080910C019091B1
:100640000D01909389008093880080910A01909118
:100650000B0190938B0080938A0080911001909100
:1006600011010E94EC00809309018093B3008091F6
:100670000E0190910F010E94EC008093080180937D
:10068000B4004ACE1F920F920FB60F9211248F938F
:100690009F93F8948FE19EE40197F1F700C000006A
:1006A0004A990AC0809107018F5F809307018330C8
:1006B000A1F41092070111C04C990AC08091060163
:1006C0008F5F80930601843041F41092060105C0CB
:1006D0004D9903C081E08093050178949F918F919B
:1006E0000F900FBE0F901F9018951F920F920FB68C
:1006F0000F9211248F939F93EF93FF93F89480911F
:10070000C600809321018C3281F4E0910201F0E077
:10071000E95EFE4F108281E0809301018091020129
:1007200080930001109202010EC090910201993055
:1007300050F4E091020191E09E0F90930201F0E0ED
:10074000E95EFE4F80837894FF91EF919F918F91A6
:100750000F900FBE0F901F901895A1E21A2EAA1BA2
:10076000BB1BFD010DC0AA1FBB1FEE1FFF1FA21761
:10077000B307E407F50720F0A21BB30BE40BF50B5E
:10078000661F771F881F991F1A9469F760957095E7
:10079000809590959B01AC01BD01CF010895A29F6A
:1007A000B001B39FC001A39F700D811D1124911D45
:1007B000B29F700D811D1124911D0895F894FFCFF3
:00000001FF
